{
  "_format": "hh-sol-artifact-1",
  "contractName": "Big3Marketplace",
  "sourceName": "contracts/Big3MarketPlace.sol",
  "abi": [
    {
      "inputs": [],
      "stateMutability": "nonpayable",
      "type": "constructor"
    },
    {
      "anonymous": false,
      "inputs": [
        {
          "indexed": true,
          "internalType": "address",
          "name": "owner",
          "type": "address"
        },
        {
          "indexed": true,
          "internalType": "address",
          "name": "approved",
          "type": "address"
        },
        {
          "indexed": true,
          "internalType": "uint256",
          "name": "tokenId",
          "type": "uint256"
        }
      ],
      "name": "Approval",
      "type": "event"
    },
    {
      "anonymous": false,
      "inputs": [
        {
          "indexed": true,
          "internalType": "address",
          "name": "owner",
          "type": "address"
        },
        {
          "indexed": true,
          "internalType": "address",
          "name": "operator",
          "type": "address"
        },
        {
          "indexed": false,
          "internalType": "bool",
          "name": "approved",
          "type": "bool"
        }
      ],
      "name": "ApprovalForAll",
      "type": "event"
    },
    {
      "anonymous": false,
      "inputs": [
        {
          "indexed": true,
          "internalType": "address",
          "name": "previousOwner",
          "type": "address"
        },
        {
          "indexed": true,
          "internalType": "address",
          "name": "newOwner",
          "type": "address"
        }
      ],
      "name": "OwnershipTransferred",
      "type": "event"
    },
    {
      "anonymous": false,
      "inputs": [
        {
          "indexed": true,
          "internalType": "address",
          "name": "from",
          "type": "address"
        },
        {
          "indexed": true,
          "internalType": "address",
          "name": "to",
          "type": "address"
        },
        {
          "indexed": true,
          "internalType": "uint256",
          "name": "tokenId",
          "type": "uint256"
        }
      ],
      "name": "Transfer",
      "type": "event"
    },
    {
      "inputs": [],
      "name": "_getTokenId",
      "outputs": [
        {
          "internalType": "uint256",
          "name": "",
          "type": "uint256"
        }
      ],
      "stateMutability": "view",
      "type": "function"
    },
    {
      "inputs": [
        {
          "internalType": "string",
          "name": "_newBaseURI",
          "type": "string"
        }
      ],
      "name": "_setBaseURI",
      "outputs": [],
      "stateMutability": "nonpayable",
      "type": "function"
    },
    {
      "inputs": [
        {
          "internalType": "uint256",
          "name": "_maxSupply",
          "type": "uint256"
        }
      ],
      "name": "_setMaxSupply",
      "outputs": [],
      "stateMutability": "nonpayable",
      "type": "function"
    },
    {
      "inputs": [
        {
          "internalType": "uint256",
          "name": "_price",
          "type": "uint256"
        }
      ],
      "name": "_setPrice",
      "outputs": [],
      "stateMutability": "nonpayable",
      "type": "function"
    },
    {
      "inputs": [
        {
          "internalType": "address",
          "name": "to",
          "type": "address"
        },
        {
          "internalType": "uint256",
          "name": "tokenId",
          "type": "uint256"
        }
      ],
      "name": "approve",
      "outputs": [],
      "stateMutability": "nonpayable",
      "type": "function"
    },
    {
      "inputs": [
        {
          "internalType": "address",
          "name": "owner",
          "type": "address"
        }
      ],
      "name": "balanceOf",
      "outputs": [
        {
          "internalType": "uint256",
          "name": "",
          "type": "uint256"
        }
      ],
      "stateMutability": "view",
      "type": "function"
    },
    {
      "inputs": [
        {
          "internalType": "uint256",
          "name": "tokenId",
          "type": "uint256"
        }
      ],
      "name": "getApproved",
      "outputs": [
        {
          "internalType": "address",
          "name": "",
          "type": "address"
        }
      ],
      "stateMutability": "view",
      "type": "function"
    },
    {
      "inputs": [
        {
          "internalType": "address",
          "name": "owner",
          "type": "address"
        },
        {
          "internalType": "address",
          "name": "operator",
          "type": "address"
        }
      ],
      "name": "isApprovedForAll",
      "outputs": [
        {
          "internalType": "bool",
          "name": "",
          "type": "bool"
        }
      ],
      "stateMutability": "view",
      "type": "function"
    },
    {
      "inputs": [
        {
          "internalType": "uint256",
          "name": "_nfttokenId",
          "type": "uint256"
        }
      ],
      "name": "list",
      "outputs": [],
      "stateMutability": "nonpayable",
      "type": "function"
    },
    {
      "inputs": [],
      "name": "maxSupply",
      "outputs": [
        {
          "internalType": "uint256",
          "name": "",
          "type": "uint256"
        }
      ],
      "stateMutability": "view",
      "type": "function"
    },
    {
      "inputs": [],
      "name": "mint",
      "outputs": [],
      "stateMutability": "nonpayable",
      "type": "function"
    },
    {
      "inputs": [],
      "name": "name",
      "outputs": [
        {
          "internalType": "string",
          "name": "",
          "type": "string"
        }
      ],
      "stateMutability": "view",
      "type": "function"
    },
    {
      "inputs": [],
      "name": "owner",
      "outputs": [
        {
          "internalType": "address",
          "name": "",
          "type": "address"
        }
      ],
      "stateMutability": "view",
      "type": "function"
    },
    {
      "inputs": [
        {
          "internalType": "uint256",
          "name": "tokenId",
          "type": "uint256"
        }
      ],
      "name": "ownerOf",
      "outputs": [
        {
          "internalType": "address",
          "name": "",
          "type": "address"
        }
      ],
      "stateMutability": "view",
      "type": "function"
    },
    {
      "inputs": [],
      "name": "price",
      "outputs": [
        {
          "internalType": "uint256",
          "name": "",
          "type": "uint256"
        }
      ],
      "stateMutability": "view",
      "type": "function"
    },
    {
      "inputs": [],
      "name": "renounceOwnership",
      "outputs": [],
      "stateMutability": "nonpayable",
      "type": "function"
    },
    {
      "inputs": [
        {
          "internalType": "address",
          "name": "from",
          "type": "address"
        },
        {
          "internalType": "address",
          "name": "to",
          "type": "address"
        },
        {
          "internalType": "uint256",
          "name": "tokenId",
          "type": "uint256"
        }
      ],
      "name": "safeTransferFrom",
      "outputs": [],
      "stateMutability": "nonpayable",
      "type": "function"
    },
    {
      "inputs": [
        {
          "internalType": "address",
          "name": "from",
          "type": "address"
        },
        {
          "internalType": "address",
          "name": "to",
          "type": "address"
        },
        {
          "internalType": "uint256",
          "name": "tokenId",
          "type": "uint256"
        },
        {
          "internalType": "bytes",
          "name": "data",
          "type": "bytes"
        }
      ],
      "name": "safeTransferFrom",
      "outputs": [],
      "stateMutability": "nonpayable",
      "type": "function"
    },
    {
      "inputs": [
        {
          "internalType": "address",
          "name": "operator",
          "type": "address"
        },
        {
          "internalType": "bool",
          "name": "approved",
          "type": "bool"
        }
      ],
      "name": "setApprovalForAll",
      "outputs": [],
      "stateMutability": "nonpayable",
      "type": "function"
    },
    {
      "inputs": [
        {
          "internalType": "bytes4",
          "name": "interfaceId",
          "type": "bytes4"
        }
      ],
      "name": "supportsInterface",
      "outputs": [
        {
          "internalType": "bool",
          "name": "",
          "type": "bool"
        }
      ],
      "stateMutability": "view",
      "type": "function"
    },
    {
      "inputs": [],
      "name": "symbol",
      "outputs": [
        {
          "internalType": "string",
          "name": "",
          "type": "string"
        }
      ],
      "stateMutability": "view",
      "type": "function"
    },
    {
      "inputs": [
        {
          "internalType": "uint256",
          "name": "tokenId",
          "type": "uint256"
        }
      ],
      "name": "tokenURI",
      "outputs": [
        {
          "internalType": "string",
          "name": "",
          "type": "string"
        }
      ],
      "stateMutability": "view",
      "type": "function"
    },
    {
      "inputs": [
        {
          "internalType": "address",
          "name": "from",
          "type": "address"
        },
        {
          "internalType": "address",
          "name": "to",
          "type": "address"
        },
        {
          "internalType": "uint256",
          "name": "tokenId",
          "type": "uint256"
        }
      ],
      "name": "transferFrom",
      "outputs": [],
      "stateMutability": "nonpayable",
      "type": "function"
    },
    {
      "inputs": [
        {
          "internalType": "address",
          "name": "newOwner",
          "type": "address"
        }
      ],
      "name": "transferOwnership",
      "outputs": [],
      "stateMutability": "nonpayable",
      "type": "function"
    }
  ],
  "bytecode": "0x60806040523480156200001157600080fd5b506040518060400160405280600881526020017f62696733204e46540000000000000000000000000000000000000000000000008152506040518060400160405280600281526020017f4233000000000000000000000000000000000000000000000000000000000000815250816000908051906020019062000096929190620001a6565b508060019080519060200190620000af929190620001a6565b505050620000d2620000c6620000d860201b60201c565b620000e060201b60201c565b620002bb565b600033905090565b6000600660009054906101000a900473ffffffffffffffffffffffffffffffffffffffff16905081600660006101000a81548173ffffffffffffffffffffffffffffffffffffffff021916908373ffffffffffffffffffffffffffffffffffffffff1602179055508173ffffffffffffffffffffffffffffffffffffffff168173ffffffffffffffffffffffffffffffffffffffff167f8be0079c531659141344cd1fd0a4f28419497f9722a3daafe3b4186f6b6457e060405160405180910390a35050565b828054620001b49062000285565b90600052602060002090601f016020900481019282620001d8576000855562000224565b82601f10620001f357805160ff191683800117855562000224565b8280016001018555821562000224579182015b828111156200022357825182559160200191906001019062000206565b5b50905062000233919062000237565b5090565b5b808211156200025257600081600090555060010162000238565b5090565b7f4e487b7100000000000000000000000000000000000000000000000000000000600052602260045260246000fd5b600060028204905060018216806200029e57607f821691505b60208210811415620002b557620002b462000256565b5b50919050565b612bd580620002cb6000396000f3fe608060405234801561001057600080fd5b50600436106101585760003560e01c806380c9419e116100c3578063b88d4fde1161007c578063b88d4fde1461038b578063c8001523146103a7578063c87b56dd146103c3578063d5abeb01146103f3578063e985e9c514610411578063f2fde38b1461044157610158565b806380c9419e146102db578063824044e1146102f75780638da5cb5b1461031557806395d89b4114610333578063a035b1fe14610351578063a22cb4651461036f57610158565b806323b872dd1161011557806323b872dd1461021d57806331b5b9071461023957806342842e0e146102555780636352211e1461027157806370a08231146102a1578063715018a6146102d157610158565b806301ffc9a71461015d57806306fdde031461018d578063081812fc146101ab578063095ea7b3146101db5780630ea412ab146101f75780631249c58b14610213575b600080fd5b61017760048036038101906101729190611d1c565b61045d565b6040516101849190611d64565b60405180910390f35b61019561053f565b6040516101a29190611e18565b60405180910390f35b6101c560048036038101906101c09190611e70565b6105d1565b6040516101d29190611ede565b60405180910390f35b6101f560048036038101906101f09190611f25565b610617565b005b610211600480360381019061020c9190611e70565b61072f565b005b61021b610741565b005b61023760048036038101906102329190611f65565b610766565b005b610253600480360381019061024e919061201d565b6107c6565b005b61026f600480360381019061026a9190611f65565b6107dc565b005b61028b60048036038101906102869190611e70565b6107fc565b6040516102989190611ede565b60405180910390f35b6102bb60048036038101906102b6919061206a565b610883565b6040516102c891906120a6565b60405180910390f35b6102d961093b565b005b6102f560048036038101906102f09190611e70565b61094f565b005b6102ff61095c565b60405161030c91906120a6565b60405180910390f35b61031d61096d565b60405161032a9190611ede565b60405180910390f35b61033b610997565b6040516103489190611e18565b60405180910390f35b610359610a29565b60405161036691906120a6565b60405180910390f35b610389600480360381019061038491906120ed565b610a2f565b005b6103a560048036038101906103a0919061225d565b610a45565b005b6103c160048036038101906103bc9190611e70565b610aa7565b005b6103dd60048036038101906103d89190611e70565b610ab9565b6040516103ea9190611e18565b60405180910390f35b6103fb610b21565b60405161040891906120a6565b60405180910390f35b61042b600480360381019061042691906122e0565b610b27565b6040516104389190611d64565b60405180910390f35b61045b6004803603810190610456919061206a565b610bbb565b005b60007f80ac58cd000000000000000000000000000000000000000000000000000000007bffffffffffffffffffffffffffffffffffffffffffffffffffffffff1916827bffffffffffffffffffffffffffffffffffffffffffffffffffffffff1916148061052857507f5b5e139f000000000000000000000000000000000000000000000000000000007bffffffffffffffffffffffffffffffffffffffffffffffffffffffff1916827bffffffffffffffffffffffffffffffffffffffffffffffffffffffff1916145b80610538575061053782610c3f565b5b9050919050565b60606000805461054e9061234f565b80601f016020809104026020016040519081016040528092919081815260200182805461057a9061234f565b80156105c75780601f1061059c576101008083540402835291602001916105c7565b820191906000526020600020905b8154815290600101906020018083116105aa57829003601f168201915b5050505050905090565b60006105dc82610ca9565b6004600083815260200190815260200160002060009054906101000a900473ffffffffffffffffffffffffffffffffffffffff169050919050565b6000610622826107fc565b90508073ffffffffffffffffffffffffffffffffffffffff168373ffffffffffffffffffffffffffffffffffffffff161415610693576040517f08c379a000000000000000000000000000000000000000000000000000000000815260040161068a906123f3565b60405180910390fd5b8073ffffffffffffffffffffffffffffffffffffffff166106b2610cf4565b73ffffffffffffffffffffffffffffffffffffffff1614806106e157506106e0816106db610cf4565b610b27565b5b610720576040517f08c379a000000000000000000000000000000000000000000000000000000000815260040161071790612485565b60405180910390fd5b61072a8383610cfc565b505050565b610737610db5565b8060078190555050565b61074b600a610e33565b6000610757600a610e49565b90506107633382610e57565b50565b610777610771610cf4565b82610e75565b6107b6576040517f08c379a00000000000000000000000000000000000000000000000000000000081526004016107ad90612517565b60405180910390fd5b6107c1838383610f0a565b505050565b8181600991906107d7929190611c0d565b505050565b6107f783838360405180602001604052806000815250610a45565b505050565b60008061080883611204565b9050600073ffffffffffffffffffffffffffffffffffffffff168173ffffffffffffffffffffffffffffffffffffffff16141561087a576040517f08c379a000000000000000000000000000000000000000000000000000000000815260040161087190612583565b60405180910390fd5b80915050919050565b60008073ffffffffffffffffffffffffffffffffffffffff168273ffffffffffffffffffffffffffffffffffffffff1614156108f4576040517f08c379a00000000000000000000000000000000000000000000000000000000081526004016108eb90612615565b60405180910390fd5b600360008373ffffffffffffffffffffffffffffffffffffffff1673ffffffffffffffffffffffffffffffffffffffff168152602001908152602001600020549050919050565b610943610db5565b61094d6000611241565b565b6109593082610617565b50565b6000610968600a610e49565b905090565b6000600660009054906101000a900473ffffffffffffffffffffffffffffffffffffffff16905090565b6060600180546109a69061234f565b80601f01602080910402602001604051908101604052809291908181526020018280546109d29061234f565b8015610a1f5780601f106109f457610100808354040283529160200191610a1f565b820191906000526020600020905b815481529060010190602001808311610a0257829003601f168201915b5050505050905090565b60075481565b610a41610a3a610cf4565b8383611307565b5050565b610a56610a50610cf4565b83610e75565b610a95576040517f08c379a0000000000000000000000000000000000000000000000000000000008152600401610a8c90612517565b60405180910390fd5b610aa184848484611474565b50505050565b610aaf610db5565b8060088190555050565b6060610ac482610ca9565b6000610ace6114d0565b90506000815111610aee5760405180602001604052806000815250610b19565b80610af884611562565b604051602001610b09929190612671565b6040516020818303038152906040525b915050919050565b60085481565b6000600560008473ffffffffffffffffffffffffffffffffffffffff1673ffffffffffffffffffffffffffffffffffffffff16815260200190815260200160002060008373ffffffffffffffffffffffffffffffffffffffff1673ffffffffffffffffffffffffffffffffffffffff16815260200190815260200160002060009054906101000a900460ff16905092915050565b610bc3610db5565b600073ffffffffffffffffffffffffffffffffffffffff168173ffffffffffffffffffffffffffffffffffffffff161415610c33576040517f08c379a0000000000000000000000000000000000000000000000000000000008152600401610c2a90612707565b60405180910390fd5b610c3c81611241565b50565b60007f01ffc9a7000000000000000000000000000000000000000000000000000000007bffffffffffffffffffffffffffffffffffffffffffffffffffffffff1916827bffffffffffffffffffffffffffffffffffffffffffffffffffffffff1916149050919050565b610cb28161163a565b610cf1576040517f08c379a0000000000000000000000000000000000000000000000000000000008152600401610ce890612583565b60405180910390fd5b50565b600033905090565b816004600083815260200190815260200160002060006101000a81548173ffffffffffffffffffffffffffffffffffffffff021916908373ffffffffffffffffffffffffffffffffffffffff160217905550808273ffffffffffffffffffffffffffffffffffffffff16610d6f836107fc565b73ffffffffffffffffffffffffffffffffffffffff167f8c5be1e5ebec7d5bd14f71427d1e84f3dd0314c0f7b2291e5b200ac8c7c3b92560405160405180910390a45050565b610dbd610cf4565b73ffffffffffffffffffffffffffffffffffffffff16610ddb61096d565b73ffffffffffffffffffffffffffffffffffffffff1614610e31576040517f08c379a0000000000000000000000000000000000000000000000000000000008152600401610e2890612773565b60405180910390fd5b565b6001816000016000828254019250508190555050565b600081600001549050919050565b610e7182826040518060200160405280600081525061167b565b5050565b600080610e81836107fc565b90508073ffffffffffffffffffffffffffffffffffffffff168473ffffffffffffffffffffffffffffffffffffffff161480610ec35750610ec28185610b27565b5b80610f0157508373ffffffffffffffffffffffffffffffffffffffff16610ee9846105d1565b73ffffffffffffffffffffffffffffffffffffffff16145b91505092915050565b8273ffffffffffffffffffffffffffffffffffffffff16610f2a826107fc565b73ffffffffffffffffffffffffffffffffffffffff1614610f80576040517f08c379a0000000000000000000000000000000000000000000000000000000008152600401610f7790612805565b60405180910390fd5b600073ffffffffffffffffffffffffffffffffffffffff168273ffffffffffffffffffffffffffffffffffffffff161415610ff0576040517f08c379a0000000000000000000000000000000000000000000000000000000008152600401610fe790612897565b60405180910390fd5b610ffd83838360016116d6565b8273ffffffffffffffffffffffffffffffffffffffff1661101d826107fc565b73ffffffffffffffffffffffffffffffffffffffff1614611073576040517f08c379a000000000000000000000000000000000000000000000000000000000815260040161106a90612805565b60405180910390fd5b6004600082815260200190815260200160002060006101000a81549073ffffffffffffffffffffffffffffffffffffffff02191690556001600360008573ffffffffffffffffffffffffffffffffffffffff1673ffffffffffffffffffffffffffffffffffffffff168152602001908152602001600020600082825403925050819055506001600360008473ffffffffffffffffffffffffffffffffffffffff1673ffffffffffffffffffffffffffffffffffffffff16815260200190815260200160002060008282540192505081905550816002600083815260200190815260200160002060006101000a81548173ffffffffffffffffffffffffffffffffffffffff021916908373ffffffffffffffffffffffffffffffffffffffff160217905550808273ffffffffffffffffffffffffffffffffffffffff168473ffffffffffffffffffffffffffffffffffffffff167fddf252ad1be2c89b69c2b068fc378daa952ba7f163c4a11628f55a4df523b3ef60405160405180910390a46111ff83838360016116dc565b505050565b60006002600083815260200190815260200160002060009054906101000a900473ffffffffffffffffffffffffffffffffffffffff169050919050565b6000600660009054906101000a900473ffffffffffffffffffffffffffffffffffffffff16905081600660006101000a81548173ffffffffffffffffffffffffffffffffffffffff021916908373ffffffffffffffffffffffffffffffffffffffff1602179055508173ffffffffffffffffffffffffffffffffffffffff168173ffffffffffffffffffffffffffffffffffffffff167f8be0079c531659141344cd1fd0a4f28419497f9722a3daafe3b4186f6b6457e060405160405180910390a35050565b8173ffffffffffffffffffffffffffffffffffffffff168373ffffffffffffffffffffffffffffffffffffffff161415611376576040517f08c379a000000000000000000000000000000000000000000000000000000000815260040161136d90612903565b60405180910390fd5b80600560008573ffffffffffffffffffffffffffffffffffffffff1673ffffffffffffffffffffffffffffffffffffffff16815260200190815260200160002060008473ffffffffffffffffffffffffffffffffffffffff1673ffffffffffffffffffffffffffffffffffffffff16815260200190815260200160002060006101000a81548160ff0219169083151502179055508173ffffffffffffffffffffffffffffffffffffffff168373ffffffffffffffffffffffffffffffffffffffff167f17307eab39ab6107e8899845ad3d59bd9653f200f220920489ca2b5937696c31836040516114679190611d64565b60405180910390a3505050565b61147f848484610f0a565b61148b848484846116e2565b6114ca576040517f08c379a00000000000000000000000000000000000000000000000000000000081526004016114c190612995565b60405180910390fd5b50505050565b6060600980546114df9061234f565b80601f016020809104026020016040519081016040528092919081815260200182805461150b9061234f565b80156115585780601f1061152d57610100808354040283529160200191611558565b820191906000526020600020905b81548152906001019060200180831161153b57829003601f168201915b5050505050905090565b60606000600161157184611879565b01905060008167ffffffffffffffff8111156115905761158f612132565b5b6040519080825280601f01601f1916602001820160405280156115c25781602001600182028036833780820191505090505b509050600082602001820190505b60011561162f578080600190039150507f3031323334353637383961626364656600000000000000000000000000000000600a86061a8153600a8581611619576116186129b5565b5b049450600085141561162a5761162f565b6115d0565b819350505050919050565b60008073ffffffffffffffffffffffffffffffffffffffff1661165c83611204565b73ffffffffffffffffffffffffffffffffffffffff1614159050919050565b61168583836119cc565b61169260008484846116e2565b6116d1576040517f08c379a00000000000000000000000000000000000000000000000000000000081526004016116c890612995565b60405180910390fd5b505050565b50505050565b50505050565b60006117038473ffffffffffffffffffffffffffffffffffffffff16611bea565b1561186c578373ffffffffffffffffffffffffffffffffffffffff1663150b7a0261172c610cf4565b8786866040518563ffffffff1660e01b815260040161174e9493929190612a39565b602060405180830381600087803b15801561176857600080fd5b505af192505050801561179957506040513d601f19601f820116820180604052508101906117969190612a9a565b60015b61181c573d80600081146117c9576040519150601f19603f3d011682016040523d82523d6000602084013e6117ce565b606091505b50600081511415611814576040517f08c379a000000000000000000000000000000000000000000000000000000000815260040161180b90612995565b60405180910390fd5b805181602001fd5b63150b7a0260e01b7bffffffffffffffffffffffffffffffffffffffffffffffffffffffff1916817bffffffffffffffffffffffffffffffffffffffffffffffffffffffff191614915050611871565b600190505b949350505050565b600080600090507a184f03e93ff9f4daa797ed6e38ed64bf6a1f01000000000000000083106118d7577a184f03e93ff9f4daa797ed6e38ed64bf6a1f01000000000000000083816118cd576118cc6129b5565b5b0492506040810190505b6d04ee2d6d415b85acef81000000008310611914576d04ee2d6d415b85acef8100000000838161190a576119096129b5565b5b0492506020810190505b662386f26fc10000831061194357662386f26fc100008381611939576119386129b5565b5b0492506010810190505b6305f5e100831061196c576305f5e1008381611962576119616129b5565b5b0492506008810190505b6127108310611991576127108381611987576119866129b5565b5b0492506004810190505b606483106119b457606483816119aa576119a96129b5565b5b0492506002810190505b600a83106119c3576001810190505b80915050919050565b600073ffffffffffffffffffffffffffffffffffffffff168273ffffffffffffffffffffffffffffffffffffffff161415611a3c576040517f08c379a0000000000000000000000000000000000000000000000000000000008152600401611a3390612b13565b60405180910390fd5b611a458161163a565b15611a85576040517f08c379a0000000000000000000000000000000000000000000000000000000008152600401611a7c90612b7f565b60405180910390fd5b611a936000838360016116d6565b611a9c8161163a565b15611adc576040517f08c379a0000000000000000000000000000000000000000000000000000000008152600401611ad390612b7f565b60405180910390fd5b6001600360008473ffffffffffffffffffffffffffffffffffffffff1673ffffffffffffffffffffffffffffffffffffffff16815260200190815260200160002060008282540192505081905550816002600083815260200190815260200160002060006101000a81548173ffffffffffffffffffffffffffffffffffffffff021916908373ffffffffffffffffffffffffffffffffffffffff160217905550808273ffffffffffffffffffffffffffffffffffffffff16600073ffffffffffffffffffffffffffffffffffffffff167fddf252ad1be2c89b69c2b068fc378daa952ba7f163c4a11628f55a4df523b3ef60405160405180910390a4611be66000838360016116dc565b5050565b6000808273ffffffffffffffffffffffffffffffffffffffff163b119050919050565b828054611c199061234f565b90600052602060002090601f016020900481019282611c3b5760008555611c82565b82601f10611c5457803560ff1916838001178555611c82565b82800160010185558215611c82579182015b82811115611c81578235825591602001919060010190611c66565b5b509050611c8f9190611c93565b5090565b5b80821115611cac576000816000905550600101611c94565b5090565b6000604051905090565b600080fd5b600080fd5b60007fffffffff0000000000000000000000000000000000000000000000000000000082169050919050565b611cf981611cc4565b8114611d0457600080fd5b50565b600081359050611d1681611cf0565b92915050565b600060208284031215611d3257611d31611cba565b5b6000611d4084828501611d07565b91505092915050565b60008115159050919050565b611d5e81611d49565b82525050565b6000602082019050611d796000830184611d55565b92915050565b600081519050919050565b600082825260208201905092915050565b60005b83811015611db9578082015181840152602081019050611d9e565b83811115611dc8576000848401525b50505050565b6000601f19601f8301169050919050565b6000611dea82611d7f565b611df48185611d8a565b9350611e04818560208601611d9b565b611e0d81611dce565b840191505092915050565b60006020820190508181036000830152611e328184611ddf565b905092915050565b6000819050919050565b611e4d81611e3a565b8114611e5857600080fd5b50565b600081359050611e6a81611e44565b92915050565b600060208284031215611e8657611e85611cba565b5b6000611e9484828501611e5b565b91505092915050565b600073ffffffffffffffffffffffffffffffffffffffff82169050919050565b6000611ec882611e9d565b9050919050565b611ed881611ebd565b82525050565b6000602082019050611ef36000830184611ecf565b92915050565b611f0281611ebd565b8114611f0d57600080fd5b50565b600081359050611f1f81611ef9565b92915050565b60008060408385031215611f3c57611f3b611cba565b5b6000611f4a85828601611f10565b9250506020611f5b85828601611e5b565b9150509250929050565b600080600060608486031215611f7e57611f7d611cba565b5b6000611f8c86828701611f10565b9350506020611f9d86828701611f10565b9250506040611fae86828701611e5b565b9150509250925092565b600080fd5b600080fd5b600080fd5b60008083601f840112611fdd57611fdc611fb8565b5b8235905067ffffffffffffffff811115611ffa57611ff9611fbd565b5b60208301915083600182028301111561201657612015611fc2565b5b9250929050565b6000806020838503121561203457612033611cba565b5b600083013567ffffffffffffffff81111561205257612051611cbf565b5b61205e85828601611fc7565b92509250509250929050565b6000602082840312156120805761207f611cba565b5b600061208e84828501611f10565b91505092915050565b6120a081611e3a565b82525050565b60006020820190506120bb6000830184612097565b92915050565b6120ca81611d49565b81146120d557600080fd5b50565b6000813590506120e7816120c1565b92915050565b6000806040838503121561210457612103611cba565b5b600061211285828601611f10565b9250506020612123858286016120d8565b9150509250929050565b600080fd5b7f4e487b7100000000000000000000000000000000000000000000000000000000600052604160045260246000fd5b61216a82611dce565b810181811067ffffffffffffffff8211171561218957612188612132565b5b80604052505050565b600061219c611cb0565b90506121a88282612161565b919050565b600067ffffffffffffffff8211156121c8576121c7612132565b5b6121d182611dce565b9050602081019050919050565b82818337600083830152505050565b60006122006121fb846121ad565b612192565b90508281526020810184848401111561221c5761221b61212d565b5b6122278482856121de565b509392505050565b600082601f83011261224457612243611fb8565b5b81356122548482602086016121ed565b91505092915050565b6000806000806080858703121561227757612276611cba565b5b600061228587828801611f10565b945050602061229687828801611f10565b93505060406122a787828801611e5b565b925050606085013567ffffffffffffffff8111156122c8576122c7611cbf565b5b6122d48782880161222f565b91505092959194509250565b600080604083850312156122f7576122f6611cba565b5b600061230585828601611f10565b925050602061231685828601611f10565b9150509250929050565b7f4e487b7100000000000000000000000000000000000000000000000000000000600052602260045260246000fd5b6000600282049050600182168061236757607f821691505b6020821081141561237b5761237a612320565b5b50919050565b7f4552433732313a20617070726f76616c20746f2063757272656e74206f776e6560008201527f7200000000000000000000000000000000000000000000000000000000000000602082015250565b60006123dd602183611d8a565b91506123e882612381565b604082019050919050565b6000602082019050818103600083015261240c816123d0565b9050919050565b7f4552433732313a20617070726f76652063616c6c6572206973206e6f7420746f60008201527f6b656e206f776e6572206f7220617070726f76656420666f7220616c6c000000602082015250565b600061246f603d83611d8a565b915061247a82612413565b604082019050919050565b6000602082019050818103600083015261249e81612462565b9050919050565b7f4552433732313a2063616c6c6572206973206e6f7420746f6b656e206f776e6560008201527f72206f7220617070726f76656400000000000000000000000000000000000000602082015250565b6000612501602d83611d8a565b915061250c826124a5565b604082019050919050565b60006020820190508181036000830152612530816124f4565b9050919050565b7f4552433732313a20696e76616c696420746f6b656e2049440000000000000000600082015250565b600061256d601883611d8a565b915061257882612537565b602082019050919050565b6000602082019050818103600083015261259c81612560565b9050919050565b7f4552433732313a2061646472657373207a65726f206973206e6f74206120766160008201527f6c6964206f776e65720000000000000000000000000000000000000000000000602082015250565b60006125ff602983611d8a565b915061260a826125a3565b604082019050919050565b6000602082019050818103600083015261262e816125f2565b9050919050565b600081905092915050565b600061264b82611d7f565b6126558185612635565b9350612665818560208601611d9b565b80840191505092915050565b600061267d8285612640565b91506126898284612640565b91508190509392505050565b7f4f776e61626c653a206e6577206f776e657220697320746865207a65726f206160008201527f6464726573730000000000000000000000000000000000000000000000000000602082015250565b60006126f1602683611d8a565b91506126fc82612695565b604082019050919050565b60006020820190508181036000830152612720816126e4565b9050919050565b7f4f776e61626c653a2063616c6c6572206973206e6f7420746865206f776e6572600082015250565b600061275d602083611d8a565b915061276882612727565b602082019050919050565b6000602082019050818103600083015261278c81612750565b9050919050565b7f4552433732313a207472616e736665722066726f6d20696e636f72726563742060008201527f6f776e6572000000000000000000000000000000000000000000000000000000602082015250565b60006127ef602583611d8a565b91506127fa82612793565b604082019050919050565b6000602082019050818103600083015261281e816127e2565b9050919050565b7f4552433732313a207472616e7366657220746f20746865207a65726f2061646460008201527f7265737300000000000000000000000000000000000000000000000000000000602082015250565b6000612881602483611d8a565b915061288c82612825565b604082019050919050565b600060208201905081810360008301526128b081612874565b9050919050565b7f4552433732313a20617070726f766520746f2063616c6c657200000000000000600082015250565b60006128ed601983611d8a565b91506128f8826128b7565b602082019050919050565b6000602082019050818103600083015261291c816128e0565b9050919050565b7f4552433732313a207472616e7366657220746f206e6f6e20455243373231526560008201527f63656976657220696d706c656d656e7465720000000000000000000000000000602082015250565b600061297f603283611d8a565b915061298a82612923565b604082019050919050565b600060208201905081810360008301526129ae81612972565b9050919050565b7f4e487b7100000000000000000000000000000000000000000000000000000000600052601260045260246000fd5b600081519050919050565b600082825260208201905092915050565b6000612a0b826129e4565b612a1581856129ef565b9350612a25818560208601611d9b565b612a2e81611dce565b840191505092915050565b6000608082019050612a4e6000830187611ecf565b612a5b6020830186611ecf565b612a686040830185612097565b8181036060830152612a7a8184612a00565b905095945050505050565b600081519050612a9481611cf0565b92915050565b600060208284031215612ab057612aaf611cba565b5b6000612abe84828501612a85565b91505092915050565b7f4552433732313a206d696e7420746f20746865207a65726f2061646472657373600082015250565b6000612afd602083611d8a565b9150612b0882612ac7565b602082019050919050565b60006020820190508181036000830152612b2c81612af0565b9050919050565b7f4552433732313a20746f6b656e20616c7265616479206d696e74656400000000600082015250565b6000612b69601c83611d8a565b9150612b7482612b33565b602082019050919050565b60006020820190508181036000830152612b9881612b5c565b905091905056fea2646970667358221220cc452c5688489a4be3ba44357b5f2892024039c5c539267d80f6268c752b15ec64736f6c63430008090033",
  "linkReferences": {},
  "deployedLinkReferences": {}
}